:020000040800F2
:1000000000280020FD190008891800088F18000832
:10001000951800089B180008A118000800000000AF
:10002000000000000000000000000000A718000809
:10003000B318000800000000BF180008CB18000823
:10004000451A0008451A0008451A0008451A000814
:10005000451A0008451A0008451A0008451A000804
:10006000451A0008451A0008451A0008451A0008F4
:10007000451A0008451A0008451A0008451A0008E4
:10008000451A0008451A0008451A0008451A0008D4
:10009000451A0008451A0008451A0008451A0008C4
:1000A000451A0008451A0008451A0008451A0008B4
:1000B000D9180008451A000800000000451A000879
:1000C000451A00080000000000000000451A000862
:1000D00000000000451A0008451A00080000000052
:1000E000451A0008451A0008451A000800000000DB
:1000F0000000000000000000000000000000000000
:0C01000000000000000000005FF808F1A3
:10010C0010B5054C237833B9044B13B10448AFF345
:10011C0000800123237010BDBC00002000000000F3
:10012C007430000808B5034B1BB103490348AFF307
:10013C00008008BD00000000C000002074300008E2
:10014C0080B500AFB64B1B68042B00F25C8101A29A
:10015C0052F823F075010008BF0100085102000895
:10016C00EB0200087B03000800F01EFCAD4B1B6883
:10017C00AD4A1360AD4B1B68AD4A1360A84B01220E
:10018C001A60AA4B1B684FF47A7202FB03F31946F0
:10019C00012001F0ABFB4FF47A71002001F0A6FBBB
:1001AC00A14B1B68A24A12681146184600F0B6FB18
:1001BC0034E1002000F022FC012000F053FC002070
:1001CC0001F0B8FB0346002B16D0974B1B68013B84
:1001DC00954A1360964B1B68013B954A1360924BF2
:1001EC001B68934A12681146184600F097FB4FF4AF
:1001FC007A71002001F07AFB012001F09BFB034691
:10020C00002B00F004818B4B1B68894A1360894BCF
:10021C001B684FF47A7202FB03F31946012001F0BC
:10022C0065FB7F4B02221A607F4B1B68804A126869
:10023C001146184600F072FB4FF47A71002001F061
:10024C0055FBE4E0002000F0D9FB012000F03EFC5F
:10025C00002001F06FFB0346002B16D0724B1B687D
:10026C00013B714A1360724B1B68013B704A13606F
:10027C006D4B1B686E4A12681146184600F04EFB17
:10028C004FF47A71002001F031FB012001F052FB98
:10029C000346002B00F0BD80644B1B68624A136060
:1002AC00604B1B68624A1360604B1B684FF47A7298
:1002BC0002FB03F31946012001F018FB4FF47A718D
:1002CC00002001F013FB564B03221A60564B1B689F
:1002DC00574A12681146184600F020FB99E000209E
:1002EC0000F0C0FB012000F089FB002001F022FB94
:1002FC000346002B16D04C4B1B68013B4A4A13603B
:10030C004B4B1B68013B4A4A1360474B1B68484ADE
:10031C0012681146184600F001FB4FF47A71002068
:10032C0001F0E4FA012001F005FB0346002B72D02A
:10033C00404B1B683C4A13603E4B1B684FF47A726F
:10034C0002FB03F31946012001F0D0FA4FF47A7145
:10035C00002001F0CBFA324B04221A60324B1B689E
:10036C00334A12681146184600F0D8FA53E00020C0
:10037C0000F0ACFB012000F041FB002001F0DAFAA8
:10038C000346002B16D0284B1B68013B264A1360F2
:10039C00274B1B68013B264A1360234B1B68244ADE
:1003AC0012681146184600F0B9FA4FF47A71002021
:1003BC0001F09CFA012001F0BDFA0346002B2CD071
:1003CC00184B1B68184A1360184B1B68184A1360AB
:1003DC00164B1B684FF47A7202FB03F3194601208B
:1003EC0001F084FA4FF47A71002001F07FFA0C4B83
:1003FC0001221A600C4B1B680D4A126811461846F4
:10040C0000F08CFA09E0064B00221A6006E000BFEF
:10041C0004E000BF02E000BF00E000BF00BF80BDF1
:10042C000C01002000000020D80000200400002057
:10043C00DC0000200800002080B483B000AF78609E
:10044C00094A7B6852F82330012B06D1064A7B6897
:10045C00002142F82310012300E0002318460C373A
:10046C00BD4680BC704700BFE000002080B582B064
:10047C0000AF00237B6092E04D4A7B6852F823204A
:10048C004C497B6841F823204B4A7B6852F8232067
:10049C0047497B6841F82320484A7B6852F823205F
:1004AC0047497B6831F813301946104601F0B0FD0E
:1004BC0003461946404A7B6842F823103D4A7B6844
:1004CC0052F823203A497B6851F823309A4263D181
:1004DC00374A7B6852F8232037497B6851F8233020
:1004EC009A4259D1374A7B6852F8232032497B68AB
:1004FC0051F823309A422FD02F4A7B6852F8232090
:10050C0030497B6841F823202B4A7B6852F8233012
:10051C00002B05D12C4A7B68C82142F823103BE004
:10052C00294A7B6852F82330002B0ADD274A7B6866
:10053C0052F82330002B04D1254A7B68012142F864
:10054C002310214A7B68002142F823101F4A7B6844
:10055C00002142F823101FE0174A7B6852F8233021
:10056C00002B19D1184A7B6852F82330002B13DD6D
:10057C00154A7B6852F823305A1E13497B6841F8A0
:10058C002320114A7B6852F82330002B04D10F4AE8
:10059C007B68012142F823107B6801337B607B6808
:1005AC00042B7FF769AF00BF00BF0837BD4680BD85
:1005BC00400000202C000020540000200C000020E3
:1005CC0020000020680000207C000020F4000020A7
:1005DC00E000002080B582B000AF786001220121DC
:1005EC00284801F02CFD01220221264801F027FDAC
:1005FC0001220421234801F022FD01220821214877
:10060C0001F01DFD7B68032B36D801A252F823F0B4
:10061C002D06000843060008590600086F0600085E
:10062C0000220121174801F00AFD174B1B681846E0
:10063C0000F02CF821E000220221124801F0FFFC0E
:10064C00114B5B68184600F021F816E000220421DB
:10065C000C4801F0F4FC0C4B9B68184600F016F8A3
:10066C000BE000220821074801F0E9FC064BDB688F
:10067C00184600F00BF800E000BF00BF0837BD467D
:10068C0080BD00BF000C01409000002080B582B0FE
:10069C0000AF7860012202219F4801F0D0FC0122BA
:1006AC0004219D4801F0CBFC012208219A4801F05D
:1006BC00C6FC01221021984801F0C1FC0122202126
:1006CC00954801F0BCFC01224021934801F0B7FC95
:1006DC0001228021904801F0B2FC7B68092B00F2CA
:1006EC00168101A252F823F01D0700085B070008D1
:1006FC0071070008A5070008D907000803080008BF
:10070C00370800087508000895080008DD0800087F
:10071C0000220221804801F092FC002204217E4834
:10072C0001F08DFC002208217B4801F088FC00229E
:10073C001021794801F083FC00222021764801F039
:10074C007EFC00224021744801F079FCDFE000229D
:10075C000421714801F073FC002208216E4801F05D
:10076C006EFCD4E0002202216B4801F068FC0022F0
:10077C000421694801F063FC00221021664801F055
:10078C005EFC00222021644801F059FC00228021EB
:10079C00614801F054FCBAE0002202215E4801F0ED
:1007AC004EFC002204215C4801F049FC0022082187
:1007BC00594801F044FC00221021574801F03FFC3D
:1007CC0000228021544801F03AFCA0E000220421D0
:1007DC00514801F034FC002208214F4801F02FFC55
:1007EC00002240214C4801F02AFC002280214A487A
:1007FC0001F025FC8BE000220221474801F01FFC90
:10080C0000220821444801F01AFC00221021424821
:10081C0001F015FC002240213F4801F010FC0022A1
:10082C0080213D4801F00BFC71E0002202213A4886
:10083C0001F005FC00220821374801F000FC0022E1
:10084C001021354801F0FBFB00222021324801F039
:10085C00F6FB00224021304801F0F1FB0022802100
:10086C002D4801F0ECFB52E0002202212A4801F055
:10087C00E6FB00220421284801F0E1FB00220821BC
:10088C00254801F0DCFB42E000220221224801F065
:10089C00D6FB00220421204801F0D1FB00220821C4
:1008AC001D4801F0CCFB002210211B4801F0C7FBB6
:1008BC0000222021184801F0C2FB002240211648DA
:1008CC0001F0BDFB00228021134801F0B8FB1EE0B3
:1008DC0000220221104801F0B2FB002204210E4834
:1008EC0001F0ADFB002208210B4801F0A8FB00220F
:1008FC001021094801F0A3FB00224021064801F019
:10090C009EFB00228021044801F099FB00BF00BF30
:10091C000837BD4680BD00BF0008014080B483B0DD
:10092C0000AF786039607B68002B01DA00237B60B4
:10093C003B68002B01DA00233B607B68184A82FB82
:10094C0003129210DB17D31A164A13607968144BF2
:10095C0083FB01239A10CB17D21A13469B00134426
:10096C005B00CA1A0F4B5A603B680D4A82FB03129C
:10097C009210DB17D31A0B4A93603968084B83FB30
:10098C0001239A10CB17D21A13469B0013445B0019
:10099C00CA1A044BDA6000BF0C37BD4680BC7047E6
:1009AC00676666669000002080B500AF01224FF4A8
:1009BC008061114801F043FB01224FF400610E48A5
:1009CC0001F03DFB01224FF480510B4801F037FB45
:1009DC0001224FF40051084801F031FB01224FF481
:1009EC008041054801F02BFB01224FF400410248E5
:1009FC0001F025FB00BF80BD000C014080B582B02A
:100A0C0000AF78607B68002B11D100224FF480611D
:100A1C00134801F014FB01224FF40061104801F05F
:100A2C000EFB01224FF480510D4801F008FB7B684E
:100A3C00012B11D100224FF40051094801F0FFFAAB
:100A4C0001224FF48041064801F0F9FA01224FF4DB
:100A5C000041034801F0F3FA00BF0837BD4680BDE2
:100A6C00000C014080B582B000AF78607B68002B31
:100A7C0011D101224FF48061134801F0E0FA0122F8
:100A8C004FF40061104801F0DAFA00224FF4805163
:100A9C000D4801F0D4FA7B68012B11D101224FF4DF
:100AAC000051094801F0CBFA01224FF4804106486D
:100ABC0001F0C5FA00224FF40041034801F0BFFADF
:100ACC0000BF0837BD4680BD000C014080B582B028
:100ADC0000AF78607B68002B11D101224FF480614C
:100AEC00134801F0ACFA00224FF40061104801F0F9
:100AFC00A6FA01224FF480510D4801F0A0FA7B6850
:100B0C00012B11D101224FF40051094801F097FA41
:100B1C0000224FF48041064801F091FA01224FF473
:100B2C000041034801F08BFA00BF0837BD4680BD79
:100B3C00000C014080B500AF094B1B681846FFF74D
:100B4C0049FD074B1B680133054A1360044B1B68B6
:100B5C000422934202DB024B00221A6000BF80BDCC
:100B6C000801002080B400AF054B1A68054B1B68C8
:100B7C001344054A136000BFBD4680BC704700BFDC
:100B8C00A4000020A8000020A000002080B500AF29
:100B9C004FF48061024801F06AFA00BF80BD00BFCB
:100BAC000008014080B500AFFFF7C4FF00BF80BD57
:100BBC0080B500AFFFF75AFC00BF80BD80B500AF19
:100BCC0000F0D0FE00BF80BD80B500AF0020FFF765
:100BDC0033FC0346012B4FD1354B1B68002B07D040
:100BEC00334B1B68002B14DD314B1B68042B10DCC2
:100BFC002F4B0C221A60FFF7D7FE4FF4FA7104202A
:100C0C0000F074FE2B4B1B6819460220FFF786FE82
:100C1C0032E0274B1B680C2B10D1254B0D221A6090
:100C2C00FFF7C2FE4FF4FA71042000F05FFE224B76
:100C3C001B6819460320FFF771FE1DE01C4B1B6857
:100C4C000D2B10D11A4B0E221A60FFF7ADFE4FF48C
:100C5C00FA71042000F04AFE184B1B681946042058
:100C6C00FFF75CFE08E0124B1B680E2B04D1104BF7
:100C7C0000221A60FFF798FE0D4B1B68002B07D063
:100C8C000B4B1B68002B06DD094B1B68042B02DC8D
:100C9C00FFF756FA09E0064B1B680B2B05DD044BDE
:100CAC001B680E2B01DC00F04FF900BF80BD00BFAC
:100CBC000C010020A0000020A8000020A4000020AF
:100CCC0080B500AF00F0BAFE00F04CF800F0D2F89E
:100CDC0000F084F81B4801F00FFE00F0BBFA4FF453
:100CEC007A71002000F002FE41F28831012000F000
:100CFC00FDFD7821032000F0F9FD134B1B68134A0E
:100D0C00126811461846FFF709FE112205211048FA
:100D1C0000F0CEFA012200210E4800F0C9FA64223C
:100D2C0000210D4800F0C4FA01220A210B4800F002
:100D3C00BFFA0A220A210A4800F0BAFA00F002FDB2
:100D4C00FCE700BFE00100200000002004000020B0
:100D5C00B10B0008BD0B0008990B0008C90B00086B
:100D6C00D50B000880B590B000AF07F1180328220E
:100D7C000021184602F070F93B1D00221A605A60DF
:100D8C009A60DA601A610223BB610123BB621023F3
:100D9C00FB6200237B6307F11803184601F080F90E
:100DAC000346002B01D000F0C9F80F237B60002311
:100DBC00BB600023FB6000233B6100237B613B1D78
:100DCC000021184601F0ECFB0346002B01D000F08B
:100DDC00B5F800BF4037BD4680BD000080B586B079
:100DEC0000AF07F1080300221A605A609A60DA60BB
:100DFC003B4600221A605A601D4B4FF080421A602D
:100E0C001B4B41F63F725A60194B00229A60184BEB
:100E1C000922DA60164B00221A61154B00229A61E6
:100E2C00134801F019FD0346002B01D000F086F8A1
:100E3C004FF48053BB6007F1080319460C4801F0CE
:100E4C0097FE0346002B01D000F078F800233B609E
:100E5C0000237B603B461946054802F06FF80346B9
:100E6C00002B01D000F06AF800BF1837BD4680BDDA
:100E7C00E001002080B586B000AF07F10803002226
:100E8C001A605A609A60DA60294B9B69284A43F0D1
:100E9C0004039361264B9B6903F004037B607B681E
:100EAC00234B9B69224A43F008039361204B9B69B7
:100EBC0003F008033B603B68002240F6FE411D48EE
:100ECC0001F0BDF800224FF60F411B4801F0B7F8B6
:100EDC0040F20133BB600023FB6000233B6107F150
:100EEC0008031946134800F019FF40F6FE43BB6097
:100EFC000123FB6000233B6102237B6107F10803A4
:100F0C0019460C4800F00AFF4FF60F43BB60012353
:100F1C00FB6000233B6102237B6107F10803194648
:100F2C00054800F0FBFE00BF1837BD4680BD00BF72
:100F3C000010024000080140000C014080B400AFDA
:100F4C0072B600BFFEE7000080B500AFB74B1B6860
:100F5C000E2B00F0F4800E2B00F366810C2B02D0CC
:100F6C000D2B76D060E1B24B1B6819460220FFF7BF
:100F7C00D5FC0020FFF760FA0346002B09D0AB4BE1
:100F8C000D221A60FFF710FD4FF4FA71042000F0E7
:100F9C00ADFC0120FFF750FA0346002B0AD0A44BFE
:100FAC001B680133A24A1360A14B1B68194602202F
:100FBC00FFF7B4FC0220FFF73FFA0346002B31D0B9
:100FCC00FFF7D0FD9A4B1B689A4A13609A4B1B682B
:100FDC009A4A13609A4B1B689A4A1360934B0022EF
:100FEC001A60FFF7E1FC934B1B68974A1360934B15
:100FFC001B68964A13604FF47A71002000F076FC5F
:10100C00924B1B684FF47A7202FB03F319460120D2
:10101C0000F06CFC8C4B1B688C4A1268114618460D
:10102C00FFF77CFC042000F085FC0346002B00F04D
:10103C00F6804FF48061864801F019F84FF40051A6
:10104C00834801F014F84FF4FA71042000F04EFCC0
:10105C00E5E07B4B1B6819460320FFF75FFC002083
:10106C00FFF7EAF90346002B09D0704B0E221A60E9
:10107C00FFF79AFC4FF4FA71042000F037FC0120C2
:10108C00FFF7DAF90346002B0AD06D4B1B680133CE
:10109C006B4A13606A4B1B6819460320FFF73EFC32
:1010AC000220FFF7C9F90346002B31D0FFF75AFD98
:1010BC005F4B1B685F4A13605F4B1B685F4A136092
:1010CC005F4B1B685F4A1360584B00221A60FFF796
:1010DC006BFC584B1B685C4A1360584B1B685B4A93
:1010EC0013604FF47A71002000F000FC574B1B6822
:1010FC004FF47A7202FB03F31946012000F0F6FB61
:10110C00514B1B68514A126811461846FFF706FCF2
:10111C00042000F00FFC0346002B00F082804FF4FB
:10112C0000614B4800F0A3FF4FF48041484800F0A9
:10113C009EFF4FF4FA71042000F0D8FB71E03E4B97
:10114C001B6819460420FFF7E9FB0020FFF774F930
:10115C000346002B04D0354B00221A60FFF724FC09
:10116C000120FFF769F90346002B0AD0324B1B68AC
:10117C000133314A1360304B1B6819460420FFF7CA
:10118C00CDFB0220FFF758F90346002B31D0FFF7B7
:10119C00E9FC274B1B68274A1360274B1B68274A1F
:1011AC001360274B1B68274A1360204B00221A60E0
:1011BC00FFF7FAFB1F4B1B68234A13601F4B1B687E
:1011CC00224A13604FF47A71002000F08FFB1F4B02
:1011DC001B684FF47A7202FB03F31946012000F0EE
:1011EC0085FB194B1B68194A126811461846FFF704
:1011FC0095FB042000F09EFB0346002B13D04FF40C
:10120C008051134800F033FF4FF40041104800F0B8
:10121C002EFF4FF4FA71042000F068FB03E000BFCE
:10122C0002E000BF00E000BF00BF80BD0C01002049
:10123C00A000002000000020A400002004000020DA
:10124C00A800002008000020D8000020DC000020AE
:10125C00000C014080B500AF00F09CFA00BF80BDCF
:10126C0080B400AF104B1B6801330F4A13600F4B57
:10127C001B68002B13D00D4B1B7B002B0FD10B4B82
:10128C005B68002B04D0094B5B68013B074A536039
:10129C00064B5B68002B02D1044B01221A7300BF72
:1012AC00BD4680BC704700BFDC010020100100204F
:1012BC0090B589B000AFF860B9607A600023FB7715
:1012CC000023BB6100233B610023FB7733E1FA7FF2
:1012DC00A14913469B0013449B000B4404331B6829
:1012EC00BA691344BB61BA69BB689A4240F2C180C7
:1012FC00FA7F994913469B0013449B000B4404331B
:10130C001A68BB69D31ABA6813443B61FA7FB9698E
:10131C00BB68C91A904813469B0013449B000344B6
:10132C00043319600923FB754CE0FB7D591EFA7DD3
:10133C0089480B469B000B449B0003441968864864
:10134C0013469B0013449B0003441960FB7D591EFC
:10135C00FA7D81480B469B000B449B0003440833E9
:10136C0019687D4813469B0013449B0003440833C3
:10137C001960FB7D591EFA7D77480B469B000B4488
:10138C009B00034404331968734813469B001344B1
:10139C009B00034404331960FB7D591EFA7D6E4893
:1013AC000B469B000B449B000344103319686A489E
:1013BC0013469B0013449B00034410331960FB7DC0
:1013CC00013BFB75FA7DFB7F9A42AED8FA7F6249EE
:1013DC0013469B0013449B000B44FA681A60FA7F77
:1013EC005D4913469B0013449B000B4404333A693C
:1013FC001A60FA7F584913469B0013449B000B4418
:10140C0008337A681A60FA7F534913469B001344D9
:10141C009B000B4404331B68002B0AD1FA7F4E4906
:10142C0013469B0013449B000B440C3301221A708F
:10143C0009E0FA7F484913469B0013449B000B4478
:10144C000C3300221A70FC7F00F0AAF902464249C4
:10145C0023469B0023449B000B4410331A60FA7FF5
:10146C003D4913469B0013449B000B4410331B68EF
:10147C006EE0FA7F384913469B0013449B000B44E3
:10148C001B68002B54D1FA7F334913469B0013443D
:10149C009B000B44FA681A60FA7FB968BB69C91AD9
:1014AC002D4813469B0013449B00034404331960DE
:1014BC00FA7F294913469B0013449B000B440833C5
:1014CC007A681A60FA7F244913469B0013449B00E8
:1014DC000B4404331B68002B0AD1FA7F1E491346B8
:1014EC009B0013449B000B440C3301221A7009E03F
:1014FC00FA7F194913469B0013449B000B440C3391
:10150C0000221A70FC7F00F04BF902461249234668
:10151C009B0023449B000B4410331A60FA7F0E4946
:10152C0013469B0013449B000B4410331B680FE0C5
:10153C00FB7F0133FB77FB7F092B7FF6C8AEFA7F6D
:10154C00054913469B0013449B000B4410331B6846
:10155C0018462437BD4690BD1001002080B485B0DC
:10156C0000AF786000237B737B68002B00F0E28077
:10157C000023FB73DAE0FA7B714913469B0013449A
:10158C009B000B4410331B687A689A4240F0CB8066
:10159C0001237B73FB7B002B2BD0FB7B082B28D8E8
:1015AC00FB7B5A1C664913469B0013449B000B445F
:1015BC001B68002B1DD0FB7B5A1C614913469B00FA
:1015CC0013449B000B4404331968FA7B5C481346A4
:1015DC009B0013449B00034404331B68FA7B0132C9
:1015EC001944574813469B0013449B00034404338F
:1015FC001960FB7BBB7360E0BB7B591CBA7B50480A
:10160C000B469B000B449B00034419684C48134643
:10161C009B0013449B0003441960BB7B591CBA7B91
:10162C0047480B469B000B449B0003440833196846
:10163C00434813469B0013449B0003440833196032
:10164C00BB7B591CBA7B3E480B469B000B449B0052
:10165C000344043319683A4813469B0013449B0017
:10166C00034404331960BB7B591CBA7B34480B46CA
:10167C009B000B449B0003440C33187830491346F1
:10168C009B0013449B000B440C3302461A70BB7B2B
:10169C00591CBA7B2A480B469B000B449B00034405
:1016AC0010331968264813469B0013449B000344CF
:1016BC0010331960BB7B0133BB73BB7B082B9BD9ED
:1016CC00BA7B1F4913469B0013449B000B4400221A
:1016DC001A60BA7B1A4913469B0013449B000B44B7
:1016EC00083300221A60BA7B154913469B00134439
:1016FC009B000B44043300221A60BA7B104913463A
:10170C009B0013449B000B440C3300221A70BA7BD1
:10171C000B4913469B0013449B000B4410330022CF
:10172C001A607B7B07E0FB7B0133FB73FB7B092B94
:10173C007FF621AF7B7B18461437BD4680BC7047C3
:10174C0010010020B0B586B000AF114B1B7B002BF5
:10175C0019D00F4B1B6898470D4B00221A730C4B7A
:10176C003C1D1D460FCD0FC42B6823607B691846AA
:10177C00FFF7F4FEFB68002B05D07B68F968FA686C
:10178C001846FFF795FD00BF1837BD46B0BD00BF2A
:10179C001001002080B400AF00BFBD4680BC704774
:1017AC0080B400AF094B1B680133084A1360074B28
:1017BC001B68002B04D1054B1B680133034A1360D3
:1017CC00024B1B681846BD4680BC7047D8010020F0
:1017DC0080B485B000AF154B9B69144A43F00103EC
:1017EC009361124B9B6903F00103BB60BB680F4B09
:1017FC00DB690E4A43F08053D3610C4BDB6903F079
:10180C0080537B607B680A4B5B68FB60FB6823F052
:10181C00E063FB60FB6843F08063FB60044AFB6899
:10182C00536000BF1437BD4680BC704700100240A7
:10183C000000014080B584B000AF78607B681B6805
:10184C00B3F1804F13D10C4BDB690B4A43F001030E
:10185C00D361094BDB6903F00103FB60FB680022D9
:10186C0000211C2000F023FA1C2000F03CFA00BFE1
:10187C001037BD4680BD00BF0010024080B400AFE1
:10188C00FEE780B400AFFEE780B400AFFEE780B4A3
:10189C0000AFFEE780B400AFFEE780B400AF00BF3E
:1018AC00BD4680BC704780B400AF00BFBD4680BC55
:1018BC00704780B400AF00BFBD4680BC704780B598
:1018CC0000AF00F001F900BF80BD000080B500AF93
:1018DC00024801F05DF800BF80BD00BFE0010020B0
:1018EC0080B400AF00BFBD4680BC704780B483B0ED
:1018FC0000AF786039607B68002B10DB7B68092BAC
:10190C000DDC094B1B683A6892FBF3F207497B68C4
:10191C0041F82320064A7B68002142F8231000BFBF
:10192C000C37BD4680BC7047B00000202802002058
:10193C005002002080B483B000AF78607B68002B2D
:10194C0007DB7B68092B04DC054A7B6852F82330E3
:10195C0000E0002318460C37BD4680BC704700BF22
:10196C005002002080B483B000AF00237B601CE0E9
:10197C00124A7B6852F82330002B13DD0F4A7B6828
:10198C0052F823305A1E0D497B6841F823200B4A2C
:10199C007B6852F82330002B04DC094A7B68012158
:1019AC0042F823107B6801337B607B68092BDFDDF9
:1019BC0000BF00BF0C37BD4680BC7047280200201A
:1019CC005002002080B582B000AF78607B681B6845
:1019DC00B3F1804F06D1FFF743FC4FF4006103488D
:1019EC0000F045FB00BF0837BD4680BD0008014034
:1019FC00FFF776FF0B480C490C4A002302E0D45841
:101A0C00C4500433C4188C42F9D3094A094C00233E
:101A1C0001E013600432A242FBD301F0F9FAFFF7A4
:101A2C004FF9704700000020BC000020B8300008BF
:101A3C00BC0000207C020020FEE7000080B500AF57
:101A4C00084B1B68074A43F010031360032000F097
:101A5C0023F90F2000F008F8FFF7BAFE0023184610
:101A6C0080BD00BF0020024080B582B000AF78601E
:101A7C00124B1A68124B1B7819464FF47A73B3FB4E
:101A8C00F1F3B2FBF3F3184600F03BF90346002BDD
:101A9C0001D001230EE07B680F2B0AD80022796855
:101AAC004FF0FF3000F003F9064A7B681360002307
:101ABC0000E0012318460837BD4680BDAC0000206D
:101ACC00B8000020B400002080B400AF054B1B7898
:101ADC001A46054B1B681344034A136000BFBD46EE
:101AEC0080BC7047B80000207802002080B400AFA2
:101AFC00024B1B681846BD4680BC7047780200201C
:101B0C0080B485B000AF78607B6803F00703FB609E
:101B1C000C4BDB68BB60BA684FF6FF031340BB602D
:101B2C00FB681A02BB68134343F0BF6343F40033F2
:101B3C00BB60044ABB68D36000BF1437BD4680BC91
:101B4C00704700BF00ED00E080B400AF044BDB68D1
:101B5C001B0A03F007031846BD4680BC704700BF44
:101B6C0000ED00E080B483B000AF0346FB7197F941
:101B7C000730002B0BDBFB7903F01F02064997F9AA
:101B8C0007305B09012000FA02F241F8232000BF64
:101B9C000C37BD4680BC704700E100E080B483B0D8
:101BAC0000AF03463960FB7197F90730002B0ADB55
:101BBC003B68DAB20C4997F907301201D2B20B44E8
:101BCC0083F800230AE03B68DAB20849FB7903F09A
:101BDC000F03043B1201D2B20B441A7600BF0C3730
:101BEC00BD4680BC704700BF00E100E000ED00E0A6
:101BFC0080B489B000AFF860B9607A60FB6803F01C
:101C0C000703FB61FB69C3F10703042B28BF042303
:101C1C00BB61FB690433062B02D9FB69033B00E073
:101C2C0000237B614FF0FF32BB6902FA03F3DA4306
:101C3C00BB681A407B699A404FF0FF317B6901FA0F
:101C4C0003F3D9437B680B40134318462437BD4636
:101C5C0080BC704780B582B000AF78607B68013B78
:101C6C00B3F1807F01D301230FE00A4A7B68013B6B
:101C7C0053600F214FF0FF30FFF790FF054B002210
:101C8C009A60044B07221A60002318460837BD4699
:101C9C0080BD00BF10E000E080B582B000AF78607E
:101CAC007868FFF72DFF00BF0837BD4680BD80B5B3
:101CBC0086B000AF0346B9607A60FB7300237B618A
:101CCC00FFF742FF78617A68B9687869FFF790FF8F
:101CDC00024697F90F3011461846FFF75FFF00BF19
:101CEC001837BD4680BD80B582B000AF0346FB718E
:101CFC0097F907301846FFF735FF00BF0837BD4688
:101D0C0080BD80B582B000AF78607868FFF7A2FF25
:101D1C00034618460837BD4680BD000080B48BB022
:101D2C0000AF7860396000237B6200233B6248E19E
:101D3C0001227B6A02FA03F3FB613B681B68FA69B8
:101D4C001340BB61BA69FB699A4240F037813B682A
:101D5C005B68A34A93425ED0A14A934275D8A14ACC
:101D6C00934258D09F4A93426FD89F4A934252D085
:101D7C009D4A934269D89D4A93424CD09B4A9342C8
:101D8C0063D89B4A934246D0994A93425DD8122B12
:101D9C002AD8122B59D801A252F823F0231E00087E
:101DAC00FD1D00080F1E0008511E0008571E0008DC
:101DBC00571E0008571E0008571E0008571E000823
:101DCC00571E0008571E0008571E0008571E000813
:101DDC00571E0008571E0008571E0008571E000803
:101DEC00051E0008191E0008824A934213D02CE0ED
:101DFC003B68DB683B6229E03B68DB6804333B6291
:101E0C0024E03B68DB6808333B621FE03B68DB681F
:101E1C000C333B621AE03B689B68002B02D1042315
:101E2C003B6213E03B689B68012B05D108233B62A6
:101E3C007B68FA691A6109E008233B627B68FA69DE
:101E4C005A6103E000233B6200E000BFBB69FF2B3B
:101E5C0001D87B6801E07B6804337B61BB69FF2B95
:101E6C0002D87B6A9B0002E07B6A083B9B003B61CB
:101E7C007B691A680F213B6901FA03F3DB431A40B3
:101E8C00396A3B6901FA03F31A437B691A603B68B0
:101E9C005B6803F08053002B00F09080564B9B69DD
:101EAC00554A43F001039361534B9B6903F00103C3
:101EBC00BB60BB68514A7B6A9B08023352F82330E3
:101ECC00FB607B6A03F003039B000F2202FA03F30F
:101EDC00DB43FA681340FB607B68494A93420DD0A0
:101EEC007B68484A934207D07B68474A934201D1AA
:101EFC00022304E0032302E0012300E000237A6ABA
:101F0C0002F0030292009340FA681343FB603B49D2
:101F1C007B6A9B080233FA6841F823203B685B68B4
:101F2C0003F48013002B06D0384B9A683749BB69F1
:101F3C0013438B6006E0354B9A68BB69DB4333492E
:101F4C0013408B603B685B6803F40013002B06D0D6
:101F5C002E4BDA682D49BB691343CB6006E02B4B43
:101F6C00DA68BB69DB4329491340CB603B685B688B
:101F7C0003F40033002B06D0244B5A682349BB6969
:101F8C0013434B6006E0214B5A68BB69DB431F4986
:101F9C0013404B603B685B6803F48033002B06D026
:101FAC001A4B1A681949BB6913430B6006E0174BAF
:101FBC001A68BB69DB43154913400B607B6A01331C
:101FCC007B623B681A687B6A22FA03F3002B7FF46E
:101FDC00AFAE00BF00BF2C37BD4680BC704700BF02
:101FEC0000003210000031100000221000002110FF
:101FFC0000001210000011100010024000000140FF
:10200C0000080140000C0140001001400004014098
:10201C0080B485B000AF78600B467B807B689A6893
:10202C007B881340002B02D00123FB7301E00023BB
:10203C00FB73FB7B18461437BD4680BC704780B4DD
:10204C0083B000AF78600B467B8013467B707B7847
:10205C00002B03D07A887B681A6103E07B881A0412
:10206C007B681A6100BF0C37BD4680BC704780B4DA
:10207C0085B000AF78600B467B807B68DB68FB60CB
:10208C007A88FB6813401A04FB68D9437B880B40A1
:10209C001A437B681A6100BF1437BD4680BC704779
:1020AC0080B586B000AF78607B68002B01D101232E
:1020BC006CE27B681B6803F00103002B00F0878047
:1020CC00924B5B6803F00C03042B0CD08F4B5B68BA
:1020DC0003F00C03082B12D18C4B5B6803F4803398
:1020EC00B3F5803F0BD1894B1B6803F40033002BF5
:1020FC006CD07B685B68002B68D1012346E27B685F
:10210C005B68B3F5803F06D1804B1B687F4A43F474
:10211C00803313602EE07B685B68002B0CD17B4B0B
:10212C001B687A4A23F480331360784B1B68774A18
:10213C0023F4802313601DE07B685B68B3F5A02F4C
:10214C000CD1724B1B68714A43F4802313606F4BA4
:10215C001B686E4A43F4803313600BE06B4B1B68B7
:10216C006A4A23F480331360684B1B68674A23F474
:10217C00802313607B685B68002B13D0FFF7B6FCE1
:10218C00386108E0FFF7B2FC02463B69D31A642BB6
:10219C0001D90323FAE15D4B1B6803F40033002BD8
:1021AC00F0D014E0FFF7A2FC386108E0FFF79EFCCA
:1021BC0002463B69D31A642B01D90323E6E1534B46
:1021CC001B6803F40033002BF0D100E000BF7B68E8
:1021DC001B6803F00203002B63D04C4B5B6803F0CD
:1021EC000C03002B0BD0494B5B6803F00C03082B42
:1021FC001CD1464B5B6803F48033002B16D1434B48
:10220C001B6803F00203002B05D07B681B69012BB4
:10221C0001D00123BAE13D4B1B6823F0F8027B6827
:10222C005B69DB00394913430B603AE07B681B693F
:10223C00002B20D0364B01221A60FFF757FC386177
:10224C0008E0FFF753FC02463B69D31A022B01D975
:10225C0003239BE12D4B1B6803F00203002BF0D0F2
:10226C002A4B1B6823F0F8027B685B69DB0027496B
:10227C0013430B6015E0264B00221A60FFF736FC67
:10228C00386108E0FFF732FC02463B69D31A022B97
:10229C0001D903237AE11D4B1B6803F00203002BC9
:1022AC00F0D17B681B6803F00803002B3AD07B68E5
:1022BC009B69002B19D0174B01221A60FFF716FCF3
:1022CC00386108E0FFF712FC02463B69D31A022B77
:1022DC0001D903235AE10D4B5B6A03F00203002B77
:1022EC00F0D0012000F09AFA1CE00A4B00221A6090
:1022FC00FFF7FCFB38610FE0FFF7F8FB02463B6988
:10230C00D31A022B08D9032340E100BF001002406E
:10231C0000004242800442429E4B5B6A03F002037F
:10232C00002BE9D17B681B6803F00403002B00F041
:10233C00A6800023FB75974BDB6903F08053002BC1
:10234C000DD1944BDB69934A43F08053D361914B8D
:10235C00DB6903F08053BB60BB680123FB758E4BBC
:10236C001B6803F48073002B18D18B4B1B688A4AB3
:10237C0043F480731360FFF7B9FB386108E0FFF793
:10238C00B5FB02463B69D31A642B01D90323FDE04C
:10239C00814B1B6803F48073002BF0D07B68DB68E7
:1023AC00012B06D17B4B1B6A7A4A43F00103136263
:1023BC002DE07B68DB68002B0CD1764B1B6A754AD1
:1023CC0023F001031362734B1B6A724A23F004035C
:1023DC0013621CE07B68DB68052B0CD16D4B1B6A10
:1023EC006C4A43F0040313626A4B1B6A694A43F05C
:1023FC00010313620BE0674B1B6A664A23F001036F
:10240C001362644B1B6A634A23F0040313627B68F8
:10241C00DB68002B15D0FFF769FB38610AE0FFF78A
:10242C0065FB02463B69D31A41F28832934201D9CB
:10243C000323ABE0574B1B6A03F00203002BEED0D7
:10244C0014E0FFF753FB38610AE0FFF74FFB02463D
:10245C003B69D31A41F28832934201D9032395E0A8
:10246C004C4B1B6A03F00203002BEED1FB7D012BBE
:10247C0005D1484BDB69474A23F08053D3617B6815
:10248C00DB69002B00F08180424B5B6803F00C038E
:10249C00082B61D07B68DB69022B46D13F4B0022B5
:1024AC001A60FFF723FB386108E0FFF71FFB0246B9
:1024BC003B69D31A022B01D9032367E0354B1B6808
:1024CC0003F00073002BF0D17B681B6AB3F5803FDF
:1024DC0008D1304B5B6823F400327B689B682D4934
:1024EC0013434B602B4B5B6823F474127B68196AA3
:1024FC007B685B6A0B43274913434B60274B0122D4
:10250C001A60FFF7F3FA386108E0FFF7EFFA0246BA
:10251C003B69D31A022B01D9032337E01D4B1B68EF
:10252C0003F00073002BF0D02FE01C4B00221A603C
:10253C00FFF7DCFA386108E0FFF7D8FA02463B698E
:10254C00D31A022B01D9032320E0124B1B6803F092
:10255C000073002BF0D118E07B68DB69012B01D1F3
:10256C00012313E00B4B5B68FB60FB6803F48032C8
:10257C007B681B6A9A4206D1FB6803F470127B6875
:10258C005B6A9A4201D0012300E0002318461837F9
:10259C00BD4680BD00100240007000406000424209
:1025AC0080B584B000AF786039607B68002B01D1B6
:1025BC000123D0E06A4B1B6803F007033A689A4288
:1025CC0010D9674B1B6823F0070265493B6813431E
:1025DC000B60634B1B6803F007033A689A4201D007
:1025EC000123B8E07B681B6803F00203002B20D0AA
:1025FC007B681B6803F00403002B05D0594B5B6808
:10260C00584A43F4E06353607B681B6803F008038B
:10261C00002B05D0534B5B68524A43F46053536014
:10262C00504B5B6823F0F0027B689B684D49134369
:10263C004B607B681B6803F00103002B40D07B6868
:10264C005B68012B07D1474B1B6803F40033002B4D
:10265C0015D101237FE07B685B68022B07D1414BCE
:10266C001B6803F00073002B09D1012373E03D4B71
:10267C001B6803F00203002B01D101236BE0394BE3
:10268C005B6823F003027B685B68364913434B603D
:10269C00FFF72CFAF8600AE0FFF728FA0246FB680D
:1026AC00D31A41F28832934201D9032353E02D4BC4
:1026BC005B6803F00C027B685B689B009A42EBD171
:1026CC00274B1B6803F007033A689A4210D2244B3D
:1026DC001B6823F0070222493B6813430B60204B15
:1026EC001B6803F007033A689A4201D0012332E0D9
:1026FC007B681B6803F00403002B08D0194B5B6844
:10270C0023F4E0627B68DB68164913434B607B68FB
:10271C001B6803F00803002B09D0124B5B6823F4F1
:10272C0060527B681B69DB000E4913434B6000F061
:10273C0021F802460B4B5B681B0903F00F030A4997
:10274C00CB5C22FA03F3094A1360094B1B68184649
:10275C00FFF78AF9002318461037BD4680BD00BF2D
:10276C0000200240001002408C300008AC00002019
:10277C00B400002080B487B000AF0023FB600023BE
:10278C00BB6000237B6100237B6000233B611E4BFD
:10279C005B68FB60FB6803F00C03042B02D0082B76
:1027AC0003D027E0194B3B6127E0FB689B0C03F03F
:1027BC000F03174AD35C7B60FB6803F48033002B58
:1027CC0010D0114B5B685B0C03F00103114AD35C16
:1027DC00BB607B680D4A02FB03F2BB68B2FBF3F3F0
:1027EC007B6104E07B680C4A02FB03F37B617B6931
:1027FC003B6102E0054B3B6100BF3B6918461C374F
:10280C00BD4680BC704700BF0010024000127A0029
:10281C009C300008AC30000800093D0080B485B045
:10282C0000AF78600A4B1B680A4AA2FB03235B0AC1
:10283C007A6802FB03F3FB6000BFFB685A1EFA6068
:10284C00002BF9D100BF00BF1437BD4680BC7047C8
:10285C00AC000020D34D621080B582B000AF786020
:10286C007B68002B01D1012341E07B6893F83D305C
:10287C00DBB2002B06D17B68002283F83C20786801
:10288C00FEF7D8FF7B68022283F83D207B681A682C
:10289C007B6804331946104600F056FA7B68012217
:1028AC0083F846207B68012283F83E207B68012256
:1028BC0083F83F207B68012283F840207B6801224B
:1028CC0083F841207B68012283F842207B68012237
:1028DC0083F843207B68012283F844207B68012223
:1028EC0083F845207B68012283F83D20002318469D
:1028FC000837BD4680BD000080B485B000AF78605D
:10290C007B6893F83D30DBB2012B01D0012335E01D
:10291C007B68022283F83D207B681B68DA687B6841
:10292C001B6842F00102DA607B681B68164A93420E
:10293C0009D07B681B68B3F1804F04D07B681B689F
:10294C00124A934211D17B681B689B6803F0070302
:10295C00FB60FB68062B10D07B681B681A687B68D1
:10296C001B6842F001021A6007E07B681B681A685A
:10297C007B681B6842F001021A600023184614376A
:10298C00BD4680BC704700BF002C014000040040D5
:10299C0080B584B000AF78607B681B68DB68FB6037
:1029AC007B681B681B69BB60BB6803F00203002BD0
:1029BC0020D0FB6803F00203002B1BD07B681B6844
:1029CC006FF002021A617B6801221A777B681B6820
:1029DC009B6903F00303002B03D0786800F098F98F
:1029EC0005E0786800F08BF9786800F09AF97B685C
:1029FC0000221A77BB6803F00403002B20D0FB687D
:102A0C0003F00403002B1BD07B681B686FF00402DF
:102A1C001A617B6802221A777B681B689B6903F436
:102A2C004073002B03D0786800F072F905E07868E9
:102A3C0000F065F9786800F074F97B6800221A7769
:102A4C00BB6803F00803002B20D0FB6803F00803DD
:102A5C00002B1BD07B681B686FF008021A617B6827
:102A6C0004221A777B681B68DB6903F00303002BD5
:102A7C0003D0786800F04CF905E0786800F03FF975
:102A8C00786800F04EF97B6800221A77BB6803F077
:102A9C001003002B20D0FB6803F01003002B1BD07D
:102AAC007B681B686FF010021A617B6808221A772A
:102ABC007B681B68DB6903F44073002B03D07868D8
:102ACC0000F026F905E0786800F019F9786800F054
:102ADC0028F97B6800221A77BB6803F00103002BEE
:102AEC000CD0FB6803F00103002B07D07B681B683C
:102AFC006FF001021A617868FEF764FFBB6803F09F
:102B0C008003002B0CD0FB6803F08003002B07D054
:102B1C007B681B686FF080021A61786800F06FFAAE
:102B2C00BB6803F04003002B0CD0FB6803F04003A0
:102B3C00002B07D07B681B686FF040021A61786825
:102B4C0000F0F8F8BB6803F02003002B0CD0FB68F6
:102B5C0003F02003002B07D07B681B686FF020026A
:102B6C001A61786800F042FA00BF1037BD4680BD8C
:102B7C0080B584B000AF786039600023FB737B684C
:102B8C0093F83C30012B01D10223B4E07B68012285
:102B9C0083F83C207B68022283F83D207B681B680D
:102BAC009B68BB60BB6823F07703BB60BB6823F4F6
:102BBC007F43BB607B681B68BA689A603B681B6884
:102BCC00B3F5005F3ED0B3F5005F00F28780B3F53C
:102BDC00805F00F08680B3F5805F7FD8702B1AD0B1
:102BEC00702B7BD8602B50D0602B77D8502B3CD0DF
:102BFC00502B73D8402B58D0402B6FD8302B64D02F
:102C0C00302B6BD8202B60D0202B67D8002B5CD0BE
:102C1C00102B5AD062E07B6818683B6899683B6857
:102C2C005A683B68DB6800F06AF97B681B689B6834
:102C3C00BB60BB6843F07703BB607B681B68BA68FA
:102C4C009A604FE07B6818683B6899683B685A68E3
:102C5C003B68DB6800F053F97B681B689A687B68FB
:102C6C001B6842F480429A603CE07B6818683B68C1
:102C7C0059683B68DB681A4600F0CAF87B681B6829
:102C8C005021184600F021F92CE07B6818683B684D
:102C9C0059683B68DB681A4600F0E8F87B681B68EB
:102CAC006021184600F011F91CE07B6818683B683D
:102CBC0059683B68DB681A4600F0AAF87B681B6809
:102CCC004021184600F001F90CE07B681A683B685B
:102CDC001B681946104600F0F8F803E00123FB735B
:102CEC0000E000BF7B68012283F83D207B68002256
:102CFC0083F83C20FB7B18461037BD4680BD80B462
:102D0C0083B000AF786000BF0C37BD4680BC704705
:102D1C0080B483B000AF786000BF0C37BD4680BC78
:102D2C00704780B483B000AF786000BF0C37BD46ED
:102D3C0080BC704780B483B000AF786000BF0C37A4
:102D4C00BD4680BC7047000080B485B000AF786091
:102D5C0039607B681B68FB607B682B4A934207D009
:102D6C007B68B3F1804F03D07B68284A934208D12B
:102D7C00FB6823F07003FB603B685B68FA681343E5
:102D8C00FB607B68204A934207D07B68B3F1804F8D
:102D9C0003D07B681D4A934208D1FB6823F440732F
:102DAC00FB603B68DB68FA681343FB60FB6823F04D
:102DBC0080023B685B691343FB607B68FA681A60AE
:102DCC003B689A687B68DA623B681A687B689A622F
:102DDC007B680D4A934203D13B681A697B681A637E
:102DEC007B6801225A617B681B6903F00103002B8D
:102DFC0005D07B681B6923F001027B681A6100BF58
:102E0C001437BD4680BC7047002C014000040040C4
:102E1C0080B487B000AFF860B9607A60FB681B6A59
:102E2C007B61FB681B6A23F00102FB681A62FB687A
:102E3C009B693B613B6923F0F0033B617B681B01A1
:102E4C003A6913433B617B6923F00A037B617A691E
:102E5C00BB6813437B61FB683A699A61FB687A69CA
:102E6C001A6200BF1C37BD4680BC704780B487B067
:102E7C0000AFF860B9607A60FB681B6A7B61FB6825
:102E8C001B6A23F01002FB681A62FB689B693B61AA
:102E9C003B6923F470433B617B681B033A69134322
:102EAC003B617B6923F0A0037B61BB681B017A69E2
:102EBC0013437B61FB683A699A61FB687A691A6211
:102ECC0000BF1C37BD4680BC704780B485B000AFD6
:102EDC00786039607B689B68FB60FB6823F070034B
:102EEC00FB603A68FB68134343F00703FB607B68A5
:102EFC00FA689A6000BF1437BD4680BC704780B436
:102F0C0087B000AFF860B9607A603B60FB689B6883
:102F1C007B617B6923F47F437B613B681A027B688E
:102F2C001A43BB6813437A6913437B61FB687A6964
:102F3C009A6000BF1C37BD4680BC704780B485B01A
:102F4C0000AF786039607B6893F83C30012B01D17D
:102F5C00022341E07B68012283F83C207B6802223B
:102F6C0083F83D207B681B685B68FB607B681B6893
:102F7C009B68BB60FB6823F07003FB603B681B68BD
:102F8C00FA681343FB607B681B68FA685A607B68BD
:102F9C001B68144A934209D07B681B68B3F1804FBD
:102FAC0004D07B681B68104A93420CD1BB6823F099
:102FBC008003BB603B685B68BA681343BB607B688B
:102FCC001B68BA689A607B68012283F83D207B6895
:102FDC00002283F83C20002318461437BD4680BCE1
:102FEC00704700BF002C01400004004080B483B047
:102FFC0000AF786000BF0C37BD4680BC704780B412
:10300C0083B000AF786000BF0C37BD4680BC704702
:10301C0070B500260C4D0D4C641BA410A64209D1B2
:10302C0000F022F800260A4D0A4C641BA410A6429C
:10303C0005D170BD55F8043B98470136EEE755F8BD
:10304C00043B98470136F2E7B0300008B030000876
:10305C00B0300008B430000803460244934200D15B
:10306C00704703F8011BF9E7F8B500BFF8BC08BCC2
:10307C009E467047F8B500BFF8BC08BC9E4670472A
:10308C00000000000000000001020304060708090C
:10309C0002030405060708090A0B0C0D0E0F10108D
:0430AC00010200001D
:0430B00031010008E2
:0430B4000D01000802
:1030B80006000000040000000200000000080140B3
:1030C8000008014000080140000000000000000066
:1030D80001000001000200000000000001000000E3
:1030E80000000000000000000000000000000000D8
:1030F80001000000000000000000000000000000C7
:1031080000000000010000000000000000000000B6
:1031180000000000000000000100000000000000A6
:10312800000000000000000000000000C8000000CF
:103138000000000000000000000000000000000087
:10314800010000000200000003000000040000006D
:1031580001000000010000000100000000127A00D8
:0C3168000A000000100000000100000040
:04000005080019FDD9
:00000001FF
