:020000040800F2
:100000000028002011140008A5120008AB120008F7
:10001000B1120008B7120008BD120008000000006D
:10002000000000000000000000000000C3120008F3
:10003000CF12000800000000DB120008E7120008E1
:1000400059140008591400085914000859140008DC
:1000500059140008591400085914000859140008CC
:1000600059140008591400085914000859140008BC
:1000700059140008591400085914000859140008AC
:10008000591400085914000859140008591400089C
:10009000591400085914000859140008591400088C
:1000A000591400085914000859140008591400087C
:1000B000F512000859140008000000005914000847
:1000C0005914000800000000000000005914000846
:1000D0000000000059140008591400080000000036
:1000E00059140008591400085914000800000000B1
:1000F0000000000000000000000000000000000000
:0C01000000000000000000005FF808F1A3
:10010C0010B5054C237833B9044B13B10448AFF345
:10011C0000800123237010BDBC00002000000000F3
:10012C00882A000808B5034B1BB103490348AFF3F9
:10013C00008008BD00000000C0000020882A0008D4
:10014C0080B500AFB64B1B68042B00F2758101A281
:10015C0052F823F075010008AF01000855020008A1
:10016C00EF0200089303000800F02EFCAD4B1B6857
:10017C00AD4A1360AD4B1B68AD4A1360A84B01220E
:10018C001A60AA4B1B684FF47A7202FB03F31946F0
:10019C00012001F0B9F84FF47A71002001F0B4F8A5
:1001AC0055E1002000F03AFC012000F06BFC00202F
:1001BC0001F0CEF80346002B16D09B4B1B68013B7D
:1001CC00994A13609A4B1B68013B994A1360964BF2
:1001DC001B68974A12681146184600F0AFFB4FF4A3
:1001EC007A71002001F090F8012001F0B1F803467B
:1001FC00002B00F02581012000F078FC894B1A6857
:10020C008A4B1B68D31A884A13608A4B1B68884A2E
:10021C001360884B1B684FF47A7202FB03F3194688
:10022C00012001F071F87E4B02221A607E4B1B6894
:10023C007F4A12681146184600F080FB4FF47A7121
:10024C00002001F061F8FBE0002000F0E7FB01204A
:10025C0000F04CFC002001F07BF80346002B16D07C
:10026C00714B1B68013B704A1360714B1B68013B5F
:10027C006F4A13606C4B1B686D4A12681146184626
:10028C0000F05CFB4FF47A71002001F03DF8012086
:10029C0001F05EF80346002B00F0D480634B1B6822
:1002AC00614A13605F4B1B68614A13605F4B1B68AC
:1002BC004FF47A7202FB03F31946012001F024F883
:1002CC004FF47A71002001F01FF8554B03221A608D
:1002DC00554B1B68564A12681146184600F02EFB07
:1002EC00B0E0012000F09AFB002000F0CBFB0020D6
:1002FC0001F02EF80346002B16D04B4B1B68013B2C
:10030C00494A13604A4B1B68013B494A1360464BF0
:10031C001B68474A12681146184600F00FFB4FF451
:10032C007A71002000F0F0FF012001F011F8034673
:10033C00002B00F089803F4B1B683B4A1360394B04
:10034C001B683B4A13604FF47A71002000F0DCFF0D
:10035C00344B1B684FF47A7202FB03F319460120ED
:10036C0000F0D2FF2E4B04221A602F4B1B68304A30
:10037C0012681146184600F0E1FA4FF47A71002029
:10038C0000F0C2FF60E0002000F0B0FB012000F0A4
:10039C0045FB002000F0DCFF0346012B16D1224B5D
:1003AC001B68013B204A1360214B1B68013B204A10
:1003BC0013601D4B1B681E4A12681146184600F04C
:1003CC00BDFA4FF47A71002000F09EFF012000F07E
:1003DC00BFFF0346012B39D1114B01221A60114B7F
:1003EC001B68114A1360114B1B68114A13600F4BA9
:1003FC001B684FF47A7202FB03F31946012000F0DC
:10040C0083FF094B1B680A4A12681146184600F014
:10041C0095FA4FF47A71002000F076FF16E000BFD9
:10042C000C01002000000020D80000200400002057
:10043C00DC00002008000020064B01221A6006E0B8
:10044C0000BF04E000BF02E000BF00E000BF00BF3F
:10045C0080BD00BF0C01002080B483B000AF786079
:10046C00094A7B6852F82330012B06D1064A7B6877
:10047C00002142F82310012300E0002318460C371A
:10048C00BD4680BC704700BFE000002080B582B044
:10049C0000AF00237B6092E04D4A7B6852F823202A
:1004AC004C497B6841F823204B4A7B6852F8232047
:1004BC0047497B6841F82320484A7B6852F823203F
:1004CC0047497B6831F813301946104601F0AAFAF7
:1004DC0003461946404A7B6842F823103D4A7B6824
:1004EC0052F823203A497B6851F823309A4263D161
:1004FC00374A7B6852F8232037497B6851F8233000
:10050C009A4259D1374A7B6852F8232032497B688A
:10051C0051F823309A422FD02F4A7B6852F823206F
:10052C0030497B6841F823202B4A7B6852F82330F2
:10053C00002B05D12C4A7B68C82142F823103BE0E4
:10054C00294A7B6852F82330002B0ADD274A7B6846
:10055C0052F82330002B04D1254A7B68012142F844
:10056C002310214A7B68002142F823101F4A7B6824
:10057C00002142F823101FE0174A7B6852F8233001
:10058C00002B19D1184A7B6852F82330002B13DD4D
:10059C00154A7B6852F823305A1E13497B6841F880
:1005AC002320114A7B6852F82330002B04D10F4AC8
:1005BC007B68012142F823107B6801337B607B68E8
:1005CC00042B7FF769AF00BF00BF0837BD4680BD65
:1005DC00400000202C000020540000200C000020C3
:1005EC0020000020680000207C000020F400002087
:1005FC00E000002080B582B000AF786001220121BC
:10060C00284801F026FA01220221264801F021FA9D
:10061C0001220421234801F01CFA0122082121485F
:10062C0001F017FA7B68032B36D801A252F823F09D
:10063C004D06000863060008790600088F060008BE
:10064C0000220121174801F004FA174B1B681846C9
:10065C0000F02CF821E000220221124801F0F9F9F7
:10066C00114B5B68184600F021F816E000220421BB
:10067C000C4801F0EEF90C4B9B68184600F016F88C
:10068C000BE000220821074801F0E3F9064BDB6878
:10069C00184600F00BF800E000BF00BF0837BD465D
:1006AC0080BD00BF000C01409000002080B582B0DE
:1006BC0000AF7860012202219F4801F0CAF90122A3
:1006CC0004219D4801F0C5F9012208219A4801F046
:1006DC00C0F901221021984801F0BBF90122202118
:1006EC00954801F0B6F901224021934801F0B1F987
:1006FC0001228021904801F0ACF97B68092B00F2B3
:10070C00168101A252F823F03D0700087B07000870
:10071C0091070008C5070008F9070008230800081E
:10072C005708000895080008B5080008FD080008DF
:10073C0000220221804801F08CF9002204217E481D
:10074C0001F087F9002208217B4801F082F9002290
:10075C001021794801F07DF900222021764801F022
:10076C0078F900224021744801F073F9DFE000228F
:10077C000421714801F06DF9002208216E4801F046
:10078C0068F9D4E0002202216B4801F062F90022E2
:10079C000421694801F05DF900221021664801F03E
:1007AC0058F900222021644801F053F900228021DD
:1007BC00614801F04EF9BAE0002202215E4801F0D6
:1007CC0048F9002204215C4801F043F90022082179
:1007DC00594801F03EF900221021574801F039F92F
:1007EC0000228021544801F034F9A0E000220421B9
:1007FC00514801F02EF9002208214F4801F029F947
:10080C00002240214C4801F024F9002280214A4862
:10081C0001F01FF98BE000220221474801F019F981
:10082C0000220821444801F014F90022102142480A
:10083C0001F00FF9002240213F4801F00AF9002293
:10084C0080213D4801F005F971E0002202213A486F
:10085C0001F0FFF800220821374801F0FAF80022D5
:10086C001021354801F0F5F800222021324801F022
:10087C00F0F800224021304801F0EBF800228021F2
:10088C002D4801F0E6F852E0002202212A4801F03E
:10089C00E0F800220421284801F0DBF800220821AE
:1008AC00254801F0D6F842E000220221224801F04E
:1008BC00D0F800220421204801F0CBF800220821B6
:1008CC001D4801F0C6F8002210211B4801F0C1F8A8
:1008DC0000222021184801F0BCF8002240211648C3
:1008EC0001F0B7F800228021134801F0B2F81EE0A5
:1008FC0000220221104801F0ACF8002204210E481D
:10090C0001F0A7F8002208210B4801F0A2F8002200
:10091C001021094801F09DF800224021064801F001
:10092C0098F800228021044801F093F800BF00BF22
:10093C000837BD4680BD00BF0008014080B483B0BD
:10094C0000AF786039607B68002B01DA00237B6094
:10095C003B68002B01DA00233B607B68184A82FB62
:10096C0003129210DB17D31A164A13607968144BD2
:10097C0083FB01239A10CB17D21A13469B00134406
:10098C005B00CA1A0F4B5A603B680D4A82FB03127C
:10099C009210DB17D31A0B4A93603968084B83FB10
:1009AC0001239A10CB17D21A13469B0013445B00F9
:1009BC00CA1A044BDA6000BF0C37BD4680BC7047C6
:1009CC00676666669000002080B500AF01224FF488
:1009DC008061114801F03DF801224FF400610E488E
:1009EC0001F037F801224FF480510B4801F031F837
:1009FC0001224FF40051084801F02BF801224FF46A
:100A0C008041054801F025F801224FF400410248CD
:100A1C0001F01FF800BF80BD000C014080B582B012
:100A2C0000AF78607B68002B11D100224FF48061FD
:100A3C00134801F00EF801224FF40061104801F048
:100A4C0008F801224FF480510D4801F002F87B6840
:100A5C00012B11D100224FF40051094800F0F9FF8D
:100A6C0001224FF48041064800F0F3FF01224FF4BD
:100A7C000041034800F0EDFF00BF0837BD4680BDC4
:100A8C00000C014080B582B000AF78607B68002B11
:100A9C0011D101224FF48061134800F0DAFF0122DA
:100AAC004FF40061104800F0D4FF00224FF4805145
:100ABC000D4800F0CEFF7B68012B11D101224FF4C1
:100ACC000051094800F0C5FF01224FF4804106484F
:100ADC0000F0BFFF00224FF40041034800F0B9FFC3
:100AEC0000BF0837BD4680BD000C014080B582B008
:100AFC0000AF78607B68002B11D101224FF480612C
:100B0C00134800F0A6FF00224FF40061104800F0DB
:100B1C00A0FF01224FF480510D4800F09AFF7B6832
:100B2C00012B11D101224FF40051094800F091FF23
:100B3C0000224FF48041064800F08BFF01224FF455
:100B4C000041034800F085FF00BF0837BD4680BD5B
:100B5C00000C014080B500AF032000F0F9FB034608
:100B6C00002B15D00B4B1B681846FFF743FDAF212C
:100B7C00032000F0C9FB074B1B680133054A1360C7
:100B8C00044B1B680422934202DB024B00221A60C6
:100B9C0000BF80BD0801002080B400AF054B1A686F
:100BAC00054B1B681344054A136000BFBD4680BC4F
:100BBC00704700BFA4000020A8000020A000002067
:100BCC0080B500AF00F044FC00F09EF800F024F972
:100BDC0000F0D6F8454801F099FB4FF47A710020EB
:100BEC0000F092FB41F28831012000F08DFB78215E
:100BFC00032000F089FB3E4B1B683E4A12681146ED
:100C0C001846FFF79BFE0020FFF726FC0346012B3E
:100C1C004FD1394B1B68002B07D0374B1B68002B6F
:100C2C0014DD354B1B68042B10DC334B0C221A6083
:100C3C00FFF7CAFE4FF4FA71042000F065FB2F4B4E
:100C4C001B6819460220FFF779FE32E02A4B1B681D
:100C5C000C2B10D1284B0D221A60FFF7B5FE4FF468
:100C6C00FA71042000F050FB254B1B681946032039
:100C7C00FFF764FE1DE0204B1B680D2B10D11E4BA3
:100C8C000E221A60FFF7A0FE4FF4FA71042000F058
:100C9C003BFB1C4B1B6819460420FFF74FFE08E07A
:100CAC00154B1B680E2B04D1134B00221A60FFF757
:100CBC008BFE114B1B68002B07D00F4B1B68002BB6
:100CCC0006DD0D4B1B68042B02DCFFF739FA09E03B
:100CDC00094B1B680B2B05DD074B1B680E2B01DC2E
:100CEC0000F002F9FFF736FF8DE700BF100100207E
:100CFC0000000020040000200C010020A0000020B7
:100D0C00A8000020A400002080B590B000AF07F12F
:100D1C00180328220021184601F0A8FE3B1D0022D2
:100D2C001A605A609A60DA601A610223BB6101236F
:100D3C00BB621023FB6200237B6307F11803184688
:100D4C0000F0B8FE0346002B01D000F0C7F80F23CB
:100D5C007B600023BB600023FB6000233B6100230E
:100D6C007B613B1D0021184601F024F90346002B42
:100D7C0001D000F0B3F800BF4037BD4680BD000085
:100D8C0080B586B000AF07F1080300221A605A60E4
:100D9C009A60DA603B4600221A605A601D4B4FF095
:100DAC0080421A601B4B41F63F725A60194B00226D
:100DBC009A60184B0922DA60164B00221A61154B07
:100DCC0000229A61134801F051FA0346002B01D01E
:100DDC0000F084F84FF48053BB6007F10803194608
:100DEC000C4801F0CFFB0346002B01D000F076F845
:100DFC0000233B6000237B603B461946054801F00D
:100E0C00A7FD0346002B01D000F068F800BF18378F
:100E1C00BD4680BD1001002080B586B000AF07F143
:100E2C00080300221A605A609A60DA60284B9B69AA
:100E3C00274A43F004039361254B9B6903F0040399
:100E4C007B607B68224B9B69214A43F008039361CA
:100E5C001F4B9B6903F008033B603B680122FE219A
:100E6C001C4800F0F6FD01224FF60F411A4800F025
:100E7C00F0FD40F20133BB600023FB6000233B61BB
:100E8C0007F108031946134800F052FCFE23BB601F
:100E9C000123FB6000233B6102237B6107F1080304
:100EAC0019460C4800F044FC4FF60F43BB6001237D
:100EBC00FB6000233B6102237B6107F108031946A9
:100ECC00054800F035FC00BF1837BD4680BD00BF9B
:100EDC000010024000080140000C014080B400AF3B
:100EEC0072B600BFFEE7000080B500AFB54B1B68C3
:100EFC000E2B00F0F0800E2B00F362810C2B02D035
:100F0C000D2B74D05CE1B04B1B6819460220FFF727
:100F1C0015FD0020FFF7A0FA0346002B09D0A94BC2
:100F2C000D221A60FFF750FD4FF4FA71042000F007
:100F3C00EBF90120FFF790FA0346002B0AD0A24BE5
:100F4C001B680133A04A13609F4B1B681946022093
:100F5C00FFF7F4FC0220FFF77FFA0346002B2FD09B
:100F6C00994B1B68994A1360994B1B68994A1360FB
:100F7C00994B1B68994A1360924B00221A60FFF739
:100F8C0023FD924B1B68964A1360924B1B68954A43
:100F9C0013604FF47A71002000F0B6F9914B1B6886
:100FAC004FF47A7202FB03F31946012000F0ACF9FE
:100FBC008B4B1B688B4A126811461846FFF7BEFC18
:100FCC00042000F0C5F90346002B00F0F4804FF428
:100FDC008061854800F055FD4FF40051824800F0C7
:100FEC0050FD4FF4FA71042000F08EF9E3E07A4BD7
:100FFC001B6819460320FFF7A1FC0020FFF72CFA11
:10100C000346002B09D06F4B0E221A60FFF7DCFC55
:10101C004FF4FA71042000F077F90120FFF71CFA65
:10102C000346002B0AD06C4B1B6801336A4A1360D1
:10103C00694B1B6819460320FFF780FC0220FFF761
:10104C000BFA0346002B2FD05F4B1B685F4A1360D3
:10105C005F4B1B685F4A13605F4B1B685F4A1360F2
:10106C00584B00221A60FFF7AFFC584B1B685C4AC8
:10107C001360584B1B685B4A13604FF47A71002065
:10108C0000F042F9574B1B684FF47A7202FB03F3E2
:10109C001946012000F038F9514B1B68514A12686F
:1010AC0011461846FFF74AFC042000F051F903469C
:1010BC00002B00F082804FF400614B4800F0E1FC03
:1010CC004FF48041484800F0DCFC4FF4FA710420E6
:1010DC0000F01AF971E03E4B1B6819460420FFF72B
:1010EC002DFC0020FFF7B8F90346002B04D0354B3C
:1010FC0000221A60FFF768FC0120FFF7ADF90346E8
:10110C00002B0AD0324B1B680133314A1360304B31
:10111C001B6819460420FFF711FC0220FFF79CF90D
:10112C000346002B31D0FFF737FD274B1B68274AAE
:10113C001360274B1B68274A1360274B1B68274AF1
:10114C001360204B00221A60FFF73EFC1F4B1B68FC
:10115C00234A13601F4B1B68224A13604FF47A71A9
:10116C00002000F0D1F81F4B1B684FF47A7202FB81
:10117C0003F31946012000F0C7F8194B1B68194AF4
:10118C00126811461846FFF7D9FB042000F0E0F86E
:10119C000346002B13D04FF48051134800F071FC20
:1011AC004FF40041104800F06CFC4FF4FA7104202D
:1011BC0000F0AAF803E000BF02E000BF00E000BFAF
:1011CC0000BF80BD0C010020A0000020000000200A
:1011DC00A400002004000020A8000020080000202B
:1011EC00D8000020DC000020000C014080B485B049
:1011FC0000AF154B9B69144A43F001039361124BEA
:10120C009B6903F00103BB60BB680F4BDB690E4AA3
:10121C0043F08053D3610C4BDB6903F080537B604C
:10122C007B680A4B5B68FB60FB6823F0E063FB6048
:10123C00FB6843F08063FB60044AFB68536000BFAB
:10124C001437BD4680BC70470010024000000140BE
:10125C0080B584B000AF78607B681B68B3F1804FB9
:10126C0013D10C4BDB690B4A43F00103D361094BDF
:10127C00DB6903F00103FB60FB68002200211C20EA
:10128C0000F01FFA1C2000F038FA00BF1037BD46E2
:10129C0080BD00BF0010024080B400AFFEE780B4F8
:1012AC0000AFFEE780B400AFFEE780B400AFFEE70E
:1012BC0080B400AFFEE780B400AF00BFBD4680BC79
:1012CC00704780B400AF00BFBD4680BC704780B48F
:1012DC0000AF00BFBD4680BC704780B500AF00F0CA
:1012EC00FDF800BF80BD000080B500AF024801F0E2
:1012FC0059F800BF80BD00BF1001002080B400AFC2
:10130C0000BFBD4680BC704780B483B000AF78602E
:10131C0039607B68002B10DB7B68092B0DDC094BDB
:10132C001B683A6892FBF3F207497B6841F823206B
:10133C00064A7B68002142F8231000BF0C37BD46DB
:10134C0080BC7047B00000205801002080010020B4
:10135C0080B483B000AF78607B68002B07DB7B68C0
:10136C00092B04DC054A7B6852F8233000E000238B
:10137C0018460C37BD4680BC704700BF800100206A
:10138C0080B483B000AF00237B601CE0124A7B6802
:10139C0052F82330002B13DD0F4A7B6852F82330B0
:1013AC005A1E0D497B6841F823200B4A7B6852F882
:1013BC002330002B04DC094A7B68012142F82310FE
:1013CC007B6801337B607B68092BDFDD00BF00BFCE
:1013DC000C37BD4680BC70475801002080010020AE
:1013EC0080B582B000AF78607B681B68B3F1804F2A
:1013FC0003D1FFF74BF8FFF7C3FF00BF0837BD461B
:10140C0080BD0000FFF77AFF0B480C490C4A002303
:10141C0002E0D458C4500433C4188C42F9D3094A9E
:10142C00094C002301E013600432A242FBD301F00B
:10143C00F9FAFFF7C5FB704700000020BC00002044
:10144C00CC2A0008BC000020AC010020FEE7000004
:10145C0080B500AF084B1B68074A43F010031360BC
:10146C00032000F023F90F2000F008F8FFF7BEFE70
:10147C000023184680BD00BF0020024080B582B01A
:10148C0000AF7860124B1A68124B1B7819464FF458
:10149C007A73B3FBF1F3B2FBF3F3184600F03BF9AC
:1014AC000346002B01D001230EE07B680F2B0AD8DA
:1014BC00002279684FF0FF3000F003F9064A7B6890
:1014CC001360002300E0012318460837BD4680BD99
:1014DC00AC000020B8000020B400002080B400AFA5
:1014EC00054B1B781A46054B1B681344034A1360C3
:1014FC0000BFBD4680BC7047B8000020A80100208A
:10150C0080B400AF024B1B681846BD4680BC7047C8
:10151C00A801002080B485B000AF78607B6803F030
:10152C000703FB600C4BDB68BB60BA684FF6FF032C
:10153C001340BB60FB681A02BB68134343F0BF63E4
:10154C0043F40033BB60044ABB68D36000BF14375C
:10155C00BD4680BC704700BF00ED00E080B400AF1A
:10156C00044BDB681B0A03F007031846BD4680BC1E
:10157C00704700BF00ED00E080B483B000AF0346BD
:10158C00FB7197F90730002B0BDBFB7903F01F0283
:10159C00064997F907305B09012000FA02F241F87D
:1015AC00232000BF0C37BD4680BC704700E100E033
:1015BC0080B483B000AF03463960FB7197F90730F4
:1015CC00002B0ADB3B68DAB20C4997F907301201A1
:1015DC00D2B20B4483F800230AE03B68DAB2084924
:1015EC00FB7903F00F03043B1201D2B20B441A76C1
:1015FC0000BF0C37BD4680BC704700BF00E100E067
:10160C0000ED00E080B489B000AFF860B9607A609A
:10161C00FB6803F00703FB61FB69C3F10703042BB1
:10162C0028BF0423BB61FB690433062B02D9FB6979
:10163C00033B00E000237B614FF0FF32BB6902FAF1
:10164C0003F3DA43BB681A407B699A404FF0FF31D1
:10165C007B6901FA03F3D9437B680B4013431846AB
:10166C002437BD4680BC704780B582B000AF78602F
:10167C007B68013BB3F1807F01D301230FE00A4A61
:10168C007B68013B53600F214FF0FF30FFF790FF59
:10169C00054B00229A60044B07221A60002318465F
:1016AC000837BD4680BD00BF10E000E080B582B0B9
:1016BC0000AF78607868FFF72DFF00BF0837BD4694
:1016CC0080BD80B586B000AF0346B9607A60FB730D
:1016DC0000237B61FFF742FF78617A68B96878690B
:1016EC00FFF790FF024697F90F3011461846FFF7A7
:1016FC005FFF00BF1837BD4680BD80B582B000AF1C
:10170C000346FB7197F907301846FFF735FF00BF0A
:10171C000837BD4680BD80B582B000AF7860786870
:10172C00FFF7A2FF034618460837BD4680BD0000F0
:10173C0080B48BB000AF7860396000237B620023EB
:10174C003B6248E101227B6A02FA03F3FB613B68CE
:10175C001B68FA691340BB61BA69FB699A4240F095
:10176C0037813B685B68A34A93425ED0A14A93429F
:10177C0075D8A14A934258D09F4A93426FD89F4A3A
:10178C00934252D09D4A934269D89D4A93424CD081
:10179C009B4A934263D89B4A934246D0994A9342C0
:1017AC005DD8122B2AD8122B59D801A252F823F04B
:1017BC0037180008111800082318000865180008CD
:1017CC006B1800086B1800086B1800086B180008E1
:1017DC006B1800086B1800086B1800086B180008D1
:1017EC006B1800086B1800086B1800086B180008C1
:1017FC006B180008191800082D180008824A93422B
:10180C0013D02CE03B68DB683B6229E03B68DB686B
:10181C0004333B6224E03B68DB6808333B621FE027
:10182C003B68DB680C333B621AE03B689B68002B1F
:10183C0002D104233B6213E03B689B68012B05D16A
:10184C0008233B627B68FA691A6109E008233B6252
:10185C007B68FA695A6103E000233B6200E000BF39
:10186C00BB69FF2B01D87B6801E07B6804337B618B
:10187C00BB69FF2B02D87B6A9B0002E07B6A083BAA
:10188C009B003B617B691A680F213B6901FA03F3EA
:10189C00DB431A40396A3B6901FA03F31A437B694B
:1018AC001A603B685B6803F08053002B00F090805B
:1018BC00564B9B69554A43F001039361534B9B690B
:1018CC0003F00103BB60BB68514A7B6A9B0802337F
:1018DC0052F82330FB607B6A03F003039B000F225A
:1018EC0002FA03F3DB43FA681340FB607B68494A56
:1018FC0093420DD07B68484A934207D07B68474A95
:10190C00934201D1022304E0032302E0012300E00F
:10191C0000237A6A02F0030292009340FA681343A0
:10192C00FB603B497B6A9B080233FA6841F8232031
:10193C003B685B6803F48013002B06D0384B9A6825
:10194C003749BB6913438B6006E0354B9A68BB691A
:10195C00DB43334913408B603B685B6803F4001333
:10196C00002B06D02E4BDA682D49BB691343CB6094
:10197C0006E02B4BDA68BB69DB4329491340CB608B
:10198C003B685B6803F40033002B06D0244B5A6889
:10199C002349BB6913434B6006E0214B5A68BB6972
:1019AC00DB431F4913404B603B685B6803F4803397
:1019BC00002B06D01A4B1A681949BB6913430B60EC
:1019CC0006E0174B1A68BB69DB43154913400B60E3
:1019DC007B6A01337B623B681A687B6A22FA03F3E9
:1019EC00002B7FF4AFAE00BF00BF2C37BD4680BCD0
:1019FC00704700BF000032100000311000002210B0
:101A0C000000211000001210000011100010024004
:101A1C000000014000080140000C01400010014092
:101A2C000004014080B485B000AF78600B467B8029
:101A3C007B689A687B881340002B02D00123FB73D0
:101A4C0001E00023FB73FB7B18461437BD4680BCBA
:101A5C00704780B483B000AF78600B467B80134630
:101A6C007B707B78002B03D07A887B681A6103E04B
:101A7C007B881A047B681A6100BF0C37BD4680BC9A
:101A8C00704780B485B000AF78600B467B807B6874
:101A9C00DB68FB607A88FB6813401A04FB68D94347
:101AAC007B880B401A437B681A6100BF1437BD4614
:101ABC0080BC704780B586B000AF78607B68002B27
:101ACC0001D101236CE27B681B6803F00103002B3E
:101ADC0000F08780924B5B6803F00C03042B0CD056
:101AEC008F4B5B6803F00C03082B12D18C4B5B689B
:101AFC0003F48033B3F5803F0BD1894B1B6803F49F
:101B0C000033002B6CD07B685B68002B68D1012301
:101B1C0046E27B685B68B3F5803F06D1804B1B685F
:101B2C007F4A43F4803313602EE07B685B68002BA4
:101B3C000CD17B4B1B687A4A23F480331360784BAF
:101B4C001B68774A23F4802313601DE07B685B6875
:101B5C00B3F5A02F0CD1724B1B68714A43F4802350
:101B6C0013606F4B1B686E4A43F4803313600BE0B9
:101B7C006B4B1B686A4A23F480331360684B1B68F9
:101B8C00674A23F4802313607B685B68002B13D0B7
:101B9C00FFF7B6FC386108E0FFF7B2FC02463B6980
:101BAC00D31A642B01D90323FAE15D4B1B6803F4B0
:101BBC000033002BF0D014E0FFF7A2FC386108E0F2
:101BCC00FFF79EFC02463B69D31A642B01D9032311
:101BDC00E6E1534B1B6803F40033002BF0D100E01B
:101BEC0000BF7B681B6803F00203002B63D04C4BD7
:101BFC005B6803F00C03002B0BD0494B5B6803F0C4
:101C0C000C03082B1CD1464B5B6803F48033002B70
:101C1C0016D1434B1B6803F00203002B05D07B68E5
:101C2C001B69012B01D00123BAE13D4B1B6823F04A
:101C3C00F8027B685B69DB00394913430B603AE0BF
:101C4C007B681B69002B20D0364B01221A60FFF7F2
:101C5C0057FC386108E0FFF753FC02463B69D31A86
:101C6C00022B01D903239BE12D4B1B6803F00203CC
:101C7C00002BF0D02A4B1B6823F0F8027B685B69C1
:101C8C00DB00274913430B6015E0264B00221A603A
:101C9C00FFF736FC386108E0FFF732FC02463B697F
:101CAC00D31A022B01D903237AE11D4B1B6803F0D5
:101CBC000203002BF0D17B681B6803F00803002B98
:101CCC003AD07B689B69002B19D0174B01221A6004
:101CDC00FFF716FC386108E0FFF712FC02463B697F
:101CEC00D31A022B01D903235AE10D4B5B6A03F083
:101CFC000203002BF0D0012000F09AFA1CE00A4BF2
:101D0C0000221A60FFF7FCFB38610FE0FFF7F8FBCD
:101D1C0002463B69D31A022B08D9032340E100BFCA
:101D2C000010024000004242800442429E4B5B6A1B
:101D3C0003F00203002BE9D17B681B6803F004035A
:101D4C00002B00F0A6800023FB75974BDB6903F09A
:101D5C008053002B0DD1944BDB69934A43F0805395
:101D6C00D361914BDB6903F08053BB60BB680123EB
:101D7C00FB758E4B1B6803F48073002B18D18B4BB7
:101D8C001B688A4A43F480731360FFF7B9FB386110
:101D9C0008E0FFF7B5FB02463B69D31A642B01D967
:101DAC000323FDE0814B1B6803F48073002BF0D000
:101DBC007B68DB68012B06D17B4B1B6A7A4A43F0AC
:101DCC00010313622DE07B68DB68002B0CD1764B92
:101DDC001B6A754A23F001031362734B1B6A724A28
:101DEC0023F0040313621CE07B68DB68052B0CD129
:101DFC006D4B1B6A6C4A43F0040313626A4B1B6AFB
:101E0C00694A43F0010313620BE0674B1B6A664A95
:101E1C0023F001031362644B1B6A634A23F004032F
:101E2C0013627B68DB68002B15D0FFF769FB386108
:101E3C000AE0FFF765FB02463B69D31A41F2883290
:101E4C00934201D90323ABE0574B1B6A03F0020307
:101E5C00002BEED014E0FFF753FB38610AE0FFF7DC
:101E6C004FFB02463B69D31A41F28832934201D9A7
:101E7C00032395E04C4B1B6A03F00203002BEED1BD
:101E8C00FB7D012B05D1484BDB69474A23F080537E
:101E9C00D3617B68DB69002B00F08180424B5B686F
:101EAC0003F00C03082B61D07B68DB69022B46D155
:101EBC003F4B00221A60FFF723FB386108E0FFF765
:101ECC001FFB02463B69D31A022B01D9032367E09F
:101EDC00354B1B6803F00073002BF0D17B681B6A39
:101EEC00B3F5803F08D1304B5B6823F400327B683C
:101EFC009B682D4913434B602B4B5B6823F4741286
:101F0C007B68196A7B685B6A0B43274913434B60F8
:101F1C00274B01221A60FFF7F3FA386108E0FFF74C
:101F2C00EFFA02463B69D31A022B01D9032337E09F
:101F3C001D4B1B6803F00073002BF0D02FE01C4BE3
:101F4C0000221A60FFF7DCFA386108E0FFF7D8FAD4
:101F5C0002463B69D31A022B01D9032320E0124B12
:101F6C001B6803F00073002BF0D118E07B68DB6971
:101F7C00012B01D1012313E00B4B5B68FB60FB6869
:101F8C0003F480327B681B6A9A4206D1FB6803F427
:101F9C0070127B685B6A9A4201D0012300E0002337
:101FAC0018461837BD4680BD001002400070004036
:101FBC006000424280B584B000AF786039607B68C5
:101FCC00002B01D10123D0E06A4B1B6803F00703FF
:101FDC003A689A4210D9674B1B6823F0070265498F
:101FEC003B6813430B60634B1B6803F007033A68B1
:101FFC009A4201D00123B8E07B681B6803F002030E
:10200C00002B20D07B681B6803F00403002B05D049
:10201C00594B5B68584A43F4E06353607B681B6818
:10202C0003F00803002B05D0534B5B68524A43F472
:10203C0060535360504B5B6823F0F0027B689B68E5
:10204C004D4913434B607B681B6803F00103002B65
:10205C0040D07B685B68012B07D1474B1B6803F4AE
:10206C000033002B15D101237FE07B685B68022BCA
:10207C0007D1414B1B6803F00073002B09D10123DE
:10208C0073E03D4B1B6803F00203002B01D10123CD
:10209C006BE0394B5B6823F003027B685B68364965
:1020AC0013434B60FFF72CFAF8600AE0FFF728FAAD
:1020BC000246FB68D31A41F28832934201D90323BA
:1020CC0053E02D4B5B6803F00C027B685B689B0054
:1020DC009A42EBD1274B1B6803F007033A689A42EC
:1020EC0010D2244B1B6823F0070222493B68134390
:1020FC000B60204B1B6803F007033A689A4201D02F
:10210C00012332E07B681B6803F00403002B08D02A
:10211C00194B5B6823F4E0627B68DB681649134358
:10212C004B607B681B6803F00803002B09D0124B33
:10213C005B6823F460527B681B69DB000E49134318
:10214C004B6000F021F802460B4B5B681B0903F057
:10215C000F030A49CB5C22FA03F3094A1360094BBB
:10216C001B681846FFF78AF9002318461037BD463E
:10217C0080BD00BF0020024000100240A02A0008D1
:10218C00AC000020B400002080B487B000AF002366
:10219C00FB600023BB6000237B6100237B6000237A
:1021AC003B611E4B5B68FB60FB6803F00C03042B6C
:1021BC0002D0082B03D027E0194B3B6127E0FB68CA
:1021CC009B0C03F00F03174AD35C7B60FB6803F492
:1021DC008033002B10D0114B5B685B0C03F00103B8
:1021EC00114AD35CBB607B680D4A02FB03F2BB68EF
:1021FC00B2FBF3F37B6104E07B680C4A02FB03F354
:10220C007B617B693B6102E0054B3B6100BF3B6935
:10221C0018461C37BD4680BC704700BF00100240FA
:10222C0000127A00B02A0008C02A000800093D00FC
:10223C0080B485B000AF78600A4B1B680A4AA2FBD9
:10224C0003235B0A7A6802FB03F3FB6000BFFB68A5
:10225C005A1EFA60002BF9D100BF00BF1437BD46DF
:10226C0080BC7047AC000020D34D621080B582B0AA
:10227C0000AF78607B68002B01D1012341E07B68C3
:10228C0093F83D30DBB2002B06D17B68002283F83B
:10229C003C207868FEF7DCFF7B68022283F83D2047
:1022AC007B681A687B6804331946104600F056FAAE
:1022BC007B68012283F846207B68012283F83E204C
:1022CC007B68012283F83F207B68012283F8402041
:1022DC007B68012283F841207B68012283F842202D
:1022EC007B68012283F843207B68012283F8442019
:1022FC007B68012283F845207B68012283F83D200E
:10230C00002318460837BD4680BD000080B485B058
:10231C0000AF78607B6893F83D30DBB2012B01D0C5
:10232C00012335E07B68022283F83D207B681B6823
:10233C00DA687B681B6842F00102DA607B681B6814
:10234C00164A934209D07B681B68B3F1804F04D0C6
:10235C007B681B68124A934211D17B681B689B688F
:10236C0003F00703FB60FB68062B10D07B681B682F
:10237C001A687B681B6842F001021A6007E07B68F0
:10238C001B681A687B681B6842F001021A60002304
:10239C0018461437BD4680BC704700BF002C014066
:1023AC000004004080B584B000AF78607B681B6887
:1023BC00DB68FB607B681B681B69BB60BB6803F058
:1023CC000203002B20D0FB6803F00203002B1BD070
:1023DC007B681B686FF002021A617B6801221A7716
:1023EC007B681B689B6903F00303002B03D07868A0
:1023FC0000F098F905E0786800F08BF9786800F047
:10240C009AF97B6800221A77BB6803F00403002B4F
:10241C0020D0FB6803F00403002B1BD07B681B68E7
:10242C006FF004021A617B6802221A777B681B68C2
:10243C009B6903F44073002B03D0786800F072F9A9
:10244C0005E0786800F065F9786800F074F97B684D
:10245C0000221A77BB6803F00803002B20D0FB681E
:10246C0003F00803002B1BD07B681B686FF008027D
:10247C001A617B6804221A777B681B68DB6903F09E
:10248C000303002B03D0786800F04CF905E0786862
:10249C0000F03FF9786800F04EF97B6800221A775B
:1024AC00BB6803F01003002B20D0FB6803F0100373
:1024BC00002B1BD07B681B686FF010021A617B68C5
:1024CC0008221A777B681B68DB6903F44073002BC6
:1024DC0003D0786800F026F905E0786800F019F967
:1024EC00786800F028F97B6800221A77BB6803F043
:1024FC000103002B0CD0FB6803F00103002B07D069
:10250C007B681B686FF001021A617868FEF768FF40
:10251C00BB6803F08003002B0CD0FB6803F0800336
:10252C00002B07D07B681B686FF080021A617868FB
:10253C0000F06FFABB6803F04003002B0CD0FB6873
:10254C0003F04003002B07D07B681B686FF0400240
:10255C001A61786800F0F8F8BB6803F02003002BD0
:10256C000CD0FB6803F02003002B07D07B681B68A2
:10257C006FF020021A61786800F042FA00BF103741
:10258C00BD4680BD80B584B000AF78603960002353
:10259C00FB737B6893F83C30012B01D10223B4E030
:1025AC007B68012283F83C207B68022283F83D2063
:1025BC007B681B689B68BB60BB6823F07703BB60C0
:1025CC00BB6823F47F43BB607B681B68BA689A6066
:1025DC003B681B68B3F5005F3ED0B3F5005F00F2BB
:1025EC008780B3F5805F00F08680B3F5805F7FD87D
:1025FC00702B1AD0702B7BD8602B50D0602B77D8D7
:10260C00502B3CD0502B73D8402B58D0402B6FD82C
:10261C00302B64D0302B6BD8202B60D0202B67D87C
:10262C00002B5CD0102B5AD062E07B6818683B689A
:10263C0099683B685A683B68DB6800F06AF97B680C
:10264C001B689B68BB60BB6843F07703BB607B680F
:10265C001B68BA689A604FE07B6818683B68996899
:10266C003B685A683B68DB6800F053F97B681B6871
:10267C009A687B681B6842F480429A603CE07B68F5
:10268C0018683B6859683B68DB681A4600F0CAF862
:10269C007B681B685021184600F021F92CE07B6800
:1026AC0018683B6859683B68DB681A4600F0E8F824
:1026BC007B681B686021184600F011F91CE07B68F0
:1026CC0018683B6859683B68DB681A4600F0AAF842
:1026DC007B681B684021184600F001F90CE07B6810
:1026EC001A683B681B681946104600F0F8F803E0BE
:1026FC000123FB7300E000BF7B68012283F83D20BF
:10270C007B68002283F83C20FB7B18461037BD46C3
:10271C0080BD80B483B000AF786000BF0C37BD467D
:10272C0080BC704780B483B000AF786000BF0C37BA
:10273C00BD4680BC704780B483B000AF786000BFEA
:10274C000C37BD4680BC704780B483B000AF786056
:10275C0000BF0C37BD4680BC7047000080B485B00C
:10276C0000AF786039607B681B68FB607B682B4A24
:10277C00934207D07B68B3F1804F03D07B68284A23
:10278C00934208D1FB6823F07003FB603B685B68E5
:10279C00FA681343FB607B68204A934207D07B683E
:1027AC00B3F1804F03D07B681D4A934208D1FB687C
:1027BC0023F44073FB603B68DB68FA681343FB60EF
:1027CC00FB6823F080023B685B691343FB607B680A
:1027DC00FA681A603B689A687B68DA623B681A6828
:1027EC007B689A627B680D4A934203D13B681A69F5
:1027FC007B681A637B6801225A617B681B6903F052
:10280C000103002B05D07B681B6923F001027B6858
:10281C001A6100BF1437BD4680BC7047002C0140C4
:10282C000004004080B487B000AFF860B9607A60F3
:10283C00FB681B6A7B61FB681B6A23F00102FB6867
:10284C001A62FB689B693B613B6923F0F0033B61B7
:10285C007B681B013A6913433B617B6923F00A03D4
:10286C007B617A69BB6813437B61FB683A699A6147
:10287C00FB687A691A6200BF1C37BD4680BC704782
:10288C0080B487B000AFF860B9607A60FB681B6AEF
:10289C007B61FB681B6A23F01002FB681A62FB6801
:1028AC009B693B613B6923F470433B617B681B0371
:1028BC003A6913433B617B6923F0A0037B61BB68DE
:1028CC001B017A6913437B61FB683A699A61FB6867
:1028DC007A691A6200BF1C37BD4680BC704780B451
:1028EC0085B000AF786039607B689B68FB60FB68E3
:1028FC0023F07003FB603A68FB68134343F0070353
:10290C00FB607B68FA689A6000BF1437BD4680BCD8
:10291C00704780B487B000AFF860B9607A603B60F4
:10292C00FB689B687B617B6923F47F437B613B681D
:10293C001A027B681A43BB6813437A6913437B61A1
:10294C00FB687A699A6000BF1C37BD4680BC704733
:10295C0080B485B000AF786039607B6893F83C3008
:10296C00012B01D1022341E07B68012283F83C203A
:10297C007B68022283F83D207B681B685B68FB60E8
:10298C007B681B689B68BB60FB6823F07003FB6073
:10299C003B681B68FA681343FB607B681B68FA682A
:1029AC005A607B681B68144A934209D07B681B6889
:1029BC00B3F1804F04D07B681B68104A93420CD152
:1029CC00BB6823F08003BB603B685B68BA68134349
:1029DC00BB607B681B68BA689A607B68012283F8CD
:1029EC003D207B68002283F83C20002318461437D6
:1029FC00BD4680BC704700BF002C01400004004065
:102A0C0080B483B000AF786000BF0C37BD4680BC8B
:102A1C00704780B483B000AF786000BF0C37BD4600
:102A2C0080BC704770B500260C4D0D4C641BA41077
:102A3C00A64209D100F022F800260A4D0A4C641B6C
:102A4C00A410A64205D170BD55F8043B9847013639
:102A5C00EEE755F8043B98470136F2E7C42A000824
:102A6C00C42A0008C42A0008C82A000803460244E5
:102A7C00934200D1704703F8011BF9E7F8B500BF8A
:102A8C00F8BC08BC9E467047F8B500BFF8BC08BC43
:042A9C009E4670479B
:102AA00000000000000000000102030406070809FE
:102AB00002030405060708090A0B0C0D0E0F10107F
:042AC000010200000F
:042AC40031010008D4
:042AC8000D010008F4
:102ACC0006000000040000000200000000080140A5
:102ADC000008014000080140000000000000000058
:102AEC0001000001000200000000000001000000D5
:102AFC0000000000000000000000000000000000CA
:102B0C0001000000000000000000000000000000B8
:102B1C0000000000010000000000000000000000A8
:102B2C000000000000000000010000000000000098
:102B3C00000000000000000000000000C8000000C1
:102B4C000000000000000000000000000000000079
:102B5C00010000000200000003000000040000005F
:102B6C0001000000010000000100000000127A00CA
:0C2B7C000A000000100000000100000032
:0400000508001411CA
:00000001FF
